:1000000054EF05F00C004B484F41204D4154204D1A
:10001000412D5246494400000C0020204E484150DA
:10002000204D4154204D4100202020534149204D76
:100030004154204D41212020000043414E482042A0
:10004000414F2042414F204D41542100202058492A
:100050004E204D4F492056414F21202000002020A6
:1000600020534149204D4154204D41212020000082
:1000700043414E482042414F2042414F204D415480
:100080002100202058494E204D4F492056414F21F4
:100090002020000096908D90120096928D92120072
:1000A00096948D941200EA6A280EE96EEF5011E0E2
:1000B000020E016EBF0E006E0400002EFDD7012E51
:1000C000F9D7960E006E002EFED700D00400EF2E5A
:1000D000EFD712002DB002D08C9801D08C88959863
:1000E0002DB202D08C9A01D08C8A959A2DB402D070
:1000F0008C9C01D08C8C959C2DB602D08C9E01D00E
:100100008C8E959E00008C869596040000D0000091
:100110008C96959612002E6A9588000E83B8010E73
:100120002E12958A000E83BA010E006ED89000360A
:1001300000502E12958C000E83BC010E006E00360E
:100140000036FC0E001600502E12958E000E83BE57
:10015000010E006E003600360036F80E0016005014
:100160002E122EC001F012009588958A958C958EDE
:100170008C84959400008C8695960000CCDF01C09D
:100180002DF08C96959600008C86959604000000C4
:10019000C2DF01C02CF08C9695969598959A959C07
:1001A000959E2D38006EF00E001600502C10016E3A
:1001B000E0EF00F09596959295948C929592D4D715
:1001C00001C02CF001BEFBD72A5202E18C9201D073
:1001D0008C82959200008C94959400008C96959654
:1001E0002B382C6E0F0E2C162CC02DF073DF2B50DD
:1001F0000F0B2C6E2D6E6EDF1200280E246E0C0E6F
:10020000256E010E266E060E276E8C9695968C92A4
:1002100095928C9495949598959A959C959E959683
:10022000959295940F0E286E3EDF010E236E23509B
:10023000030808E3030E2D6E4DDF050E286E33DF35
:10024000232AF5D7020E2D6E45DF050E286E2BDF13
:10025000236A235003080FE3036A2350240FE96E37
:10026000000E0320EA6EEFCF28F02A6A28C02BF098
:10027000A1DF232AEED78EEF05F0272C01D003D083
:10028000400E286E01D0286A010E265C28262850D0
:100290008009296E2A6A2B6E8DDF12002550070A0D
:1002A00007E00B0A0AE0060A10E0020A14E018D080
:1002B000010E266E276EE1DF18D02A6A010E2B6E22
:1002C00079DF020E286EEFDE10D0010E266E020ED0
:1002D000276ED3DF0AD02A6A100E2B6E6BDF05D093
:1002E000010E2A6E25C02BF065DF12000900F552C1
:1002F0000CE0F6CF23F0F7CF24F0F5CF25F0CEDFDA
:1003000023C0F6FF24C0F7FFF1D71200040EF66EEB
:10031000000EF76EEBDF060EF66E000EF76EE6DFF0
:1003200012008B9294928B909490D8903E347E0BD6
:10033000416E080E406E405210E04150800B800824
:1003400002E08B9401D08B8494948B829492D89009
:1003500041368B9294924006EED7080E406E405282
:1003600010E03F50800B800802E08B9401D08B841A
:1003700094948B829492D8903F368B9294924006BC
:10038000EED78B8094908B82949212008B889498F5
:10039000040000008B989498040000008B889498C7
:1003A00004000000010E3E6E0F0E3F6EBADF040027
:1003B000000046EF02F0406A8B9294928B909490EA
:1003C000D8903D347E0B80093F6E080E3E6E3E5243
:1003D00010E03F50800B800802E08B9401D08B84AA
:1003E00094948B829492D8903F368B9294923E064E
:1003F000EED7080E3E6E3E520DE08B829492D8905E
:1004000040369486000E82B6010E40128B92949272
:100410003E06F1D78B8094908B82949240C001F07D
:1004200012003C6A3AC03DF0C6DF01C03CF03B50D0
:10043000FF0A3C143D6E3AC03EF03F6E72DF120080
:10044000140E3A6E030E3B6EECDF64EF02F03C6A72
:100450003AC03DF0B0DF01C03CF03C503B103D6E77
:100460003AC03EF03F6E5DDF1200140E3D6EA3DF1A
:1004700001C023F0140E3A6E030E3B6EE8DF65EF09
:1004800002F08B8094908B88949880D72A0E3E6ED1
:100490008D0E3F6E46DF2B0E3E6E3E0E3F6E41DFF1
:1004A0002D0E3E6E1E0E3F6E3CDF2C0E3E6E3F6AE2
:1004B00038DF150E3E6E400E3F6E33DF110E3E6E7E
:1004C0003D0E3F6E2EDFBCD7D0D791EF05F0939451
:1004D0008A94938881B809D0938881A8FDD70A0EA1
:1004E000286EE1DD010E016E90D0938A81BA09D0A9
:1004F000938A81AAFDD70A0E286ED5DD040E016EFF
:1005000084D0938C81BC09D0938C81ACFDD70A0E2A
:10051000286EC9DD070E016E78D0938E81BE09D09A
:10052000938E81AEFDD70A0E286EBDDD0A0E016ED8
:100530006CD093948A8493928A92938881B809D0DC
:10054000938881A8FDD70A0E286EADDD020E016EDC
:100550005CD0938A81BA09D0938A81AAFDD70A0E0A
:10056000286EA1DD050E016E50D0938C81BC09D0A0
:10057000938C81ACFDD70A0E286E95DD080E016EB6
:1005800044D0938E81BE09D0938E81AEFDD70A0EE2
:10059000286E89DD000E016E38D093928A82939086
:1005A0008A90938881B809D0938881A8FDD70A0ED4
:1005B000286E79DD030E016E28D0938A81BA09D0A6
:1005C000938A81AAFDD70A0E286E6DDD060E016E94
:1005D0001CD0938C81BC09D0938C81ACFDD70A0EC2
:1005E000286E61DD090E016E10D0938E81BE09D098
:1005F000938E81AEFDD70A0E286E55DD0B0E016E6F
:1006000004D093908A800C0E016E92EF05F0180EC4
:10061000F66E000EF76E6ADE1A0EF66E000EF76EBC
:1006200065DE010E266E020E276E27DE1200010E19
:10063000236E246A2450050819E3036A24500C0F22
:10064000E96E000E0320EA6EEFCF25F0036A245016
:10065000040FE96E000E0320EA6EEF50255C04E003
:10066000000E016E07D002D0242AE4D7232C02D03A
:10067000010E016EBCEF05F096948D8412009690E9
:100680008D801200246A2350245C0AE2F8DFC80E31
:10069000286E09DDFFDCC80E286E05DD242AF3D79D
:1006A00012000B6A0C680D680E680F6810681168FC
:1006B000120096928D821200020E346E356A366AEE
:1006C0002C500E0A03E0020A06E00AD0120E356E24
:1006D000100E366E05D0770E356E300E366E00D0A9
:1006E000355080093A6E020E3E6E3AC03FF019DE78
:1006F000040E3A6E800E3B6E94DE0A0E3A6E800E49
:100700003B6EA5DE010E3E6E3F6A0BDE396A2F504E
:10071000395C10E2036A39502D24E96E2E50032013
:10072000EA6EEFCF3AF0090E3E6E3AC03FF0F9DDC7
:10073000392AEDD7010E3E6E2CC03FF0F2DD2C5071
:100740000C0805E10D0E3A6E800E3B6E80DE3968B6
:10075000040E3D6E30DE01C038F03906395205E036
:1007600038B003D038503614F3E00D0E3A6E800ED8
:100770003B6E57DE39525DE0060E3D6E1CDE0150C9
:100780001B0B55E1346A38503514010B02E0010EA1
:10079000346E2C500C084AE10A0E3D6E0CDE01C08E
:1007A00038F00C0E3D6E07DE0150070B376E3752E6
:1007B0000BE032C0E9FF33C0EAFF010E385C080DE0
:1007C000F3503724EF6E08D032C0E9FF33C0EAFFA0
:1007D0003850080DF3CFEFFF385202E1010E386EAA
:1007E0003850100802E2100E386E396A3850395C01
:1007F00015E2036A39503024016E3150032201C0E2
:100800003AF003C03BF0090E3D6ED5DD3BC0EAFF78
:100810003AC0E9FF01C0EFFF392AE8D7036A39502F
:100820003024E96E31500320EA6EEF6A02D0020EE6
:10083000346E34C001F012000D0E3E6E070E3F6E96
:1008400070DD26C0E9FF27C0EAFF25C0EFFF0C0ED0
:100850002C6E27C02EF026C02DF0010E2F6E27C063
:1008600031F026C030F0336A290E326E25DF01C028
:1008700028F0285203E12950100802E0020E286EE9
:1008800028C001F04BEF04F0260E256E24C027F09F
:1008900023C026F0D1D7015204E1010E016E03D02E
:1008A00002D0000E016E13EF06F02A6A0D0E3E6EA6
:1008B0003F6A37DD26C0E9FF27C0EAFF930EEF6EDF
:1008C000010E2624E96E000E2720EA6E200EEF6E40
:1008D000080E3A6E3B6EA5DD0C0E2C6E27C02EF076
:1008E00026C02DF0020E2F6E27C031F026C030F04A
:1008F000336A2B0E326EE0DE01C028F028521AE176
:10090000296A295003080BE3036A29502624E96E5B
:1009100027500320EA6EEF502A1A292AF2D7040E34
:100920002624E96E000E2720EA6EEF502A5C02E0D2
:10093000020E286E28C001F0A3EF04F024C027F0B7
:1009400023C026F0B2D701C025F0050E2324E96E9E
:10095000000E2420EA6EEF6A255204E1010E016EBA
:1009600003D002D0000E016E19EF06F0010E236EC7
:10097000246A2450050818E3036A2450140FE96E12
:10098000000E0320EA6EEFCF25F0036A24501A0F01
:10099000E96E000E0320EA6EEF50255C03E0000EC6
:1009A000016E06D0242AE5D7232C02D0010E016E59
:1009B0001CEF06F0050E3A6E040E3B6E32DD0A0E99
:1009C0003A6E800E3B6E43DD2D6A2A502D5C12E29A
:1009D00029C003F02850282AD8B4292AE96E03C078
:1009E000EAFFEFCF2FF0090E3E6E2FC03FF099DCEB
:1009F0002D2AEBD7010E3E6E030E3F6E92DC2D6862
:100A0000050E3D6ED8DC01C02EF02D062D5202E001
:100A10002EA4F6D72BC001F02CC003F02BC02FF072
:100A20002CC030F0220E3D6EC6DC30C0EAFF2FC075
:100A3000E9FF01C0EFFF010E2B24016E000E2C20F8
:100A4000036E01C02FF0306E210E3D6EB4DC30C05D
:100A5000EAFF2FC0E9FF01C0EFFF3BEF05F0500EAA
:100A6000246E256A296A240E286E020E2A6E2C6ACC
:100A7000260E2B6E9FD7080E3A6E800E3B6ED1DC91
:100A80000C0E2C6E2E6A240E2D6E040E2F6E316A03
:100A9000240E306E336A230E326E0EDE080E3A6E6E
:100AA0003B6EBFDC6EEF06F0F86AD09E126A136AE6
:100AB000C150C00B0F09C16E070EB46E010E046E5B
:100AC000020E056E030E066E040E076E050E086E0E
:100AD000060E096E030E1A6E090E1B6E670E1C6E53
:100AE000920E1D6E1E681F6A226A000E956E969009
:100AF000969296949696080E946EF00E936EF19ED2
:100B000093948A8493928A8293908A804AEC00F02C
:100B10004DEC00F050EC00F0FDEF00F086EC01F041
:100B2000B0D4D5D401C00AF00A500C08D8B477D09C
:100B30000A50F40FD8B073D00C0F70EF06F01252B9
:100B400004E1010E126E63DD13D0122C11D00B5094
:100B500005080EE3036A0B500C0FE96E000E03202C
:100B6000EA6E0AC0EFFF2A0E256E4EEC01F00B2A4A
:100B700056D0122C54D05BD501C020F0205230E169
:100B80007BDD010E266E020E276E3DEC01F0280E75
:100B9000F66E000EF76E76EC01F0030E236E72DD3A
:100BA000040E236EFA0E286E53EC00F0232EFAD7B3
:100BB00078DD2DDD50EC00F0132A135003080FE10F
:100BC0005EDD5ADD010E266E020E276E3DEC01F051
:100BD0003A0EF66E000EF76E76EC01F0FFD71FD0DE
:100BE000010E266E020E276E3DEC01F04C0EF66EE5
:100BF000000EF76E76EC01F05CDD010E236E42DD37
:100C00000C0E236EFA0E286E53EC00F0232EFAD74A
:100C100048DD126A86EC01F04DEC00F0136A246A9C
:100C2000210E236E31D6015259E0246A140E236E30
:100C300085D6015252E09AD601C022F0225230E10C
:100C40001BDD010E266E020E276E3DEC01F05E0EDE
:100C5000F66E000EF76E76EC01F0030E236E12DDD9
:100C6000040E236EFA0E286E53EC00F0232EFAD7F2
:100C700086EC01F050EC00F0132A135003080FE14A
:100C8000FEDCFADC010E266E020E276E3DEC01F052
:100C9000700EF66E000EF76E76EC01F0FFD71DD0E9
:100CA000010E266E020E276E3DEC01F0820EF66EEE
:100CB000000EF76E76EC01F0FCDC010E236EE2DC38
:100CC0000C0E236EFA0E286E53EC00F0232EFAD78A
:100CD00086EC01F04DEC00F0136AC1D622D7030078
:100CE000E824F76AF736FB0FF66E0C0EF7220A00BF
:100CF000F550FA6E0800F550F96E3E0B3E0B3E0BB8
:100D00003E0B3E0B3E0B3E0B3E0B3E0B3E0B1E0CBA
:020D1000720B64
:020000040030CA
:0E00000000C2180E008781000FC00FE00F40F5
:00000001FF
;PIC18F4520
;CRC=8261  CREATED="24-Dec-23 10:44"
